{
  "_format": "hh-sol-artifact-1",
  "contractName": "StakingPool",
  "sourceName": "contracts/staking/StakingPool.sol",
  "abi": [
    {
      "inputs": [
        {
          "internalType": "contract IERC20",
          "name": "_stakingToken",
          "type": "address"
        },
        {
          "internalType": "contract IERC20",
          "name": "_rewardToken",
          "type": "address"
        },
        {
          "internalType": "uint256",
          "name": "_rewardRate",
          "type": "uint256"
        },
        {
          "internalType": "address",
          "name": "admin",
          "type": "address"
        }
      ],
      "stateMutability": "nonpayable",
      "type": "constructor"
    },
    {
      "inputs": [],
      "name": "AccessControlBadConfirmation",
      "type": "error"
    },
    {
      "inputs": [
        {
          "internalType": "address",
          "name": "account",
          "type": "address"
        },
        {
          "internalType": "bytes32",
          "name": "neededRole",
          "type": "bytes32"
        }
      ],
      "name": "AccessControlUnauthorizedAccount",
      "type": "error"
    },
    {
      "inputs": [],
      "name": "EnforcedPause",
      "type": "error"
    },
    {
      "inputs": [],
      "name": "ExpectedPause",
      "type": "error"
    },
    {
      "inputs": [],
      "name": "ReentrancyGuardReentrantCall",
      "type": "error"
    },
    {
      "inputs": [
        {
          "internalType": "address",
          "name": "token",
          "type": "address"
        }
      ],
      "name": "SafeERC20FailedOperation",
      "type": "error"
    },
    {
      "anonymous": false,
      "inputs": [
        {
          "indexed": true,
          "internalType": "address",
          "name": "user",
          "type": "address"
        },
        {
          "indexed": false,
          "internalType": "uint256",
          "name": "amount",
          "type": "uint256"
        }
      ],
      "name": "Deposited",
      "type": "event"
    },
    {
      "anonymous": false,
      "inputs": [
        {
          "indexed": false,
          "internalType": "address",
          "name": "account",
          "type": "address"
        }
      ],
      "name": "Paused",
      "type": "event"
    },
    {
      "anonymous": false,
      "inputs": [
        {
          "indexed": true,
          "internalType": "address",
          "name": "user",
          "type": "address"
        },
        {
          "indexed": false,
          "internalType": "uint256",
          "name": "amount",
          "type": "uint256"
        }
      ],
      "name": "RewardClaimed",
      "type": "event"
    },
    {
      "anonymous": false,
      "inputs": [
        {
          "indexed": false,
          "internalType": "uint256",
          "name": "newRate",
          "type": "uint256"
        }
      ],
      "name": "RewardRateUpdated",
      "type": "event"
    },
    {
      "anonymous": false,
      "inputs": [
        {
          "indexed": true,
          "internalType": "bytes32",
          "name": "role",
          "type": "bytes32"
        },
        {
          "indexed": true,
          "internalType": "bytes32",
          "name": "previousAdminRole",
          "type": "bytes32"
        },
        {
          "indexed": true,
          "internalType": "bytes32",
          "name": "newAdminRole",
          "type": "bytes32"
        }
      ],
      "name": "RoleAdminChanged",
      "type": "event"
    },
    {
      "anonymous": false,
      "inputs": [
        {
          "indexed": true,
          "internalType": "bytes32",
          "name": "role",
          "type": "bytes32"
        },
        {
          "indexed": true,
          "internalType": "address",
          "name": "account",
          "type": "address"
        },
        {
          "indexed": true,
          "internalType": "address",
          "name": "sender",
          "type": "address"
        }
      ],
      "name": "RoleGranted",
      "type": "event"
    },
    {
      "anonymous": false,
      "inputs": [
        {
          "indexed": true,
          "internalType": "bytes32",
          "name": "role",
          "type": "bytes32"
        },
        {
          "indexed": true,
          "internalType": "address",
          "name": "account",
          "type": "address"
        },
        {
          "indexed": true,
          "internalType": "address",
          "name": "sender",
          "type": "address"
        }
      ],
      "name": "RoleRevoked",
      "type": "event"
    },
    {
      "anonymous": false,
      "inputs": [
        {
          "indexed": false,
          "internalType": "address",
          "name": "account",
          "type": "address"
        }
      ],
      "name": "Unpaused",
      "type": "event"
    },
    {
      "anonymous": false,
      "inputs": [
        {
          "indexed": true,
          "internalType": "address",
          "name": "user",
          "type": "address"
        },
        {
          "indexed": false,
          "internalType": "uint256",
          "name": "amount",
          "type": "uint256"
        }
      ],
      "name": "Withdrawn",
      "type": "event"
    },
    {
      "inputs": [],
      "name": "DEFAULT_ADMIN_ROLE",
      "outputs": [
        {
          "internalType": "bytes32",
          "name": "",
          "type": "bytes32"
        }
      ],
      "stateMutability": "view",
      "type": "function"
    },
    {
      "inputs": [],
      "name": "MANAGER_ROLE",
      "outputs": [
        {
          "internalType": "bytes32",
          "name": "",
          "type": "bytes32"
        }
      ],
      "stateMutability": "view",
      "type": "function"
    },
    {
      "inputs": [],
      "name": "accRewardPerShare",
      "outputs": [
        {
          "internalType": "uint256",
          "name": "",
          "type": "uint256"
        }
      ],
      "stateMutability": "view",
      "type": "function"
    },
    {
      "inputs": [
        {
          "internalType": "uint256",
          "name": "amount",
          "type": "uint256"
        }
      ],
      "name": "deposit",
      "outputs": [],
      "stateMutability": "nonpayable",
      "type": "function"
    },
    {
      "inputs": [],
      "name": "emergencyWithdraw",
      "outputs": [],
      "stateMutability": "nonpayable",
      "type": "function"
    },
    {
      "inputs": [
        {
          "internalType": "bytes32",
          "name": "role",
          "type": "bytes32"
        }
      ],
      "name": "getRoleAdmin",
      "outputs": [
        {
          "internalType": "bytes32",
          "name": "",
          "type": "bytes32"
        }
      ],
      "stateMutability": "view",
      "type": "function"
    },
    {
      "inputs": [
        {
          "internalType": "bytes32",
          "name": "role",
          "type": "bytes32"
        },
        {
          "internalType": "address",
          "name": "account",
          "type": "address"
        }
      ],
      "name": "grantRole",
      "outputs": [],
      "stateMutability": "nonpayable",
      "type": "function"
    },
    {
      "inputs": [
        {
          "internalType": "bytes32",
          "name": "role",
          "type": "bytes32"
        },
        {
          "internalType": "address",
          "name": "account",
          "type": "address"
        }
      ],
      "name": "hasRole",
      "outputs": [
        {
          "internalType": "bool",
          "name": "",
          "type": "bool"
        }
      ],
      "stateMutability": "view",
      "type": "function"
    },
    {
      "inputs": [],
      "name": "lastUpdate",
      "outputs": [
        {
          "internalType": "uint256",
          "name": "",
          "type": "uint256"
        }
      ],
      "stateMutability": "view",
      "type": "function"
    },
    {
      "inputs": [],
      "name": "pause",
      "outputs": [],
      "stateMutability": "nonpayable",
      "type": "function"
    },
    {
      "inputs": [],
      "name": "paused",
      "outputs": [
        {
          "internalType": "bool",
          "name": "",
          "type": "bool"
        }
      ],
      "stateMutability": "view",
      "type": "function"
    },
    {
      "inputs": [
        {
          "internalType": "address",
          "name": "user",
          "type": "address"
        }
      ],
      "name": "pendingReward",
      "outputs": [
        {
          "internalType": "uint256",
          "name": "",
          "type": "uint256"
        }
      ],
      "stateMutability": "view",
      "type": "function"
    },
    {
      "inputs": [
        {
          "internalType": "bytes32",
          "name": "role",
          "type": "bytes32"
        },
        {
          "internalType": "address",
          "name": "callerConfirmation",
          "type": "address"
        }
      ],
      "name": "renounceRole",
      "outputs": [],
      "stateMutability": "nonpayable",
      "type": "function"
    },
    {
      "inputs": [
        {
          "internalType": "bytes32",
          "name": "role",
          "type": "bytes32"
        },
        {
          "internalType": "address",
          "name": "account",
          "type": "address"
        }
      ],
      "name": "revokeRole",
      "outputs": [],
      "stateMutability": "nonpayable",
      "type": "function"
    },
    {
      "inputs": [],
      "name": "rewardRate",
      "outputs": [
        {
          "internalType": "uint256",
          "name": "",
          "type": "uint256"
        }
      ],
      "stateMutability": "view",
      "type": "function"
    },
    {
      "inputs": [],
      "name": "rewardToken",
      "outputs": [
        {
          "internalType": "contract IERC20",
          "name": "",
          "type": "address"
        }
      ],
      "stateMutability": "view",
      "type": "function"
    },
    {
      "inputs": [
        {
          "internalType": "uint256",
          "name": "newRate",
          "type": "uint256"
        }
      ],
      "name": "setRewardRate",
      "outputs": [],
      "stateMutability": "nonpayable",
      "type": "function"
    },
    {
      "inputs": [],
      "name": "stakingToken",
      "outputs": [
        {
          "internalType": "contract IERC20",
          "name": "",
          "type": "address"
        }
      ],
      "stateMutability": "view",
      "type": "function"
    },
    {
      "inputs": [
        {
          "internalType": "bytes4",
          "name": "interfaceId",
          "type": "bytes4"
        }
      ],
      "name": "supportsInterface",
      "outputs": [
        {
          "internalType": "bool",
          "name": "",
          "type": "bool"
        }
      ],
      "stateMutability": "view",
      "type": "function"
    },
    {
      "inputs": [],
      "name": "unpause",
      "outputs": [],
      "stateMutability": "nonpayable",
      "type": "function"
    },
    {
      "inputs": [],
      "name": "updatePool",
      "outputs": [],
      "stateMutability": "nonpayable",
      "type": "function"
    },
    {
      "inputs": [
        {
          "internalType": "address",
          "name": "",
          "type": "address"
        }
      ],
      "name": "userInfo",
      "outputs": [
        {
          "internalType": "uint256",
          "name": "amount",
          "type": "uint256"
        },
        {
          "internalType": "uint256",
          "name": "rewardDebt",
          "type": "uint256"
        }
      ],
      "stateMutability": "view",
      "type": "function"
    },
    {
      "inputs": [
        {
          "internalType": "uint256",
          "name": "amount",
          "type": "uint256"
        }
      ],
      "name": "withdraw",
      "outputs": [],
      "stateMutability": "nonpayable",
      "type": "function"
    }
  ],
  "bytecode": "0x60c06040523480156200001157600080fd5b506040516200137238038062001372833981016040819052620000349162000235565b60016002556001600160a01b038416620000825760405162461bcd60e51b815260206004820152600a602482015269546f6b656e207a65726f60b01b60448201526064015b60405180910390fd5b6001600160a01b038316620000c75760405162461bcd60e51b815260206004820152600a602482015269546f6b656e207a65726f60b01b604482015260640162000079565b6001600160a01b0381166200010c5760405162461bcd60e51b815260206004820152600a60248201526941646d696e207a65726f60b01b604482015260640162000079565b6001600160a01b03808516608052831660a052600382905542600455620001356000826200016d565b50620001627f241ecf16d79d0f8dbfb92cbc07fe17840425976cf0667f022fe9877caa831b08826200016d565b505050505062000291565b6000828152602081815260408083206001600160a01b038516845290915281205460ff1662000212576000838152602081815260408083206001600160a01b03861684529091529020805460ff19166001179055620001c93390565b6001600160a01b0316826001600160a01b0316847f2f8788117e7eff1d82e926ec794901d17c78024a50270940304540a733656f0d60405160405180910390a450600162000216565b5060005b92915050565b6001600160a01b03811681146200023257600080fd5b50565b600080600080608085870312156200024c57600080fd5b845162000259816200021c565b60208601519094506200026c816200021c565b60408601516060870151919450925062000286816200021c565b939692955090935050565b60805160a05161108a620002e8600039600081816103280152818161043f015261073301526000818161023a015281816104e90152818161079f015281816108df0152818161096c0152610aa3015261108a6000f3fe608060405234801561001057600080fd5b506004361061014d5760003560e01c806391d14854116100c3578063d547741f1161007c578063d547741f146102d8578063db2e21bc146102eb578063e3161ddd146102f3578063ec87621c146102fb578063f40f0f5214610310578063f7c618c11461032357600080fd5b806391d1485414610285578063939d6237146102985780639e447fc6146102a1578063a217fddf146102b4578063b6b55f25146102bc578063c0463711146102cf57600080fd5b806336568abe1161011557806336568abe1461020f5780633f4ba83a146102225780635c975abb1461022a57806372f702f3146102355780637b0a47ee146102745780638456cb591461027d57600080fd5b806301ffc9a7146101525780631959a0021461017a578063248a9ca3146101b65780632e1a7d4d146101e75780632f2ff15d146101fc575b600080fd5b610165610160366004610ef9565b61034a565b60405190151581526020015b60405180910390f35b6101a1610188366004610f46565b6006602052600090815260409020805460019091015482565b60408051928352602083019190915201610171565b6101d96101c4366004610f61565b60009081526020819052604090206001015490565b604051908152602001610171565b6101fa6101f5366004610f61565b610381565b005b6101fa61020a366004610f7a565b610554565b6101fa61021d366004610f7a565b61057f565b6101fa6105b7565b60015460ff16610165565b61025c7f000000000000000000000000000000000000000000000000000000000000000081565b6040516001600160a01b039091168152602001610171565b6101d960035481565b6101fa6105d7565b610165610293366004610f7a565b6105f7565b6101d960055481565b6101fa6102af366004610f61565b610620565b6101d9600081565b6101fa6102ca366004610f61565b61067c565b6101d960045481565b6101fa6102e6366004610f7a565b610847565b6101fa61086c565b6101fa610949565b6101d960008051602061103583398151915281565b6101d961031e366004610f46565b610a50565b61025c7f000000000000000000000000000000000000000000000000000000000000000081565b60006001600160e01b03198216637965db0b60e01b148061037b57506301ffc9a760e01b6001600160e01b03198316145b92915050565b610389610bb0565b33600090815260066020526040902081158015906103a8575080548211155b6103ec5760405162461bcd60e51b815260206004820152601060248201526f496e76616c696420776974686472617760801b60448201526064015b60405180910390fd5b6103f4610949565b60008160010154670de0b6b3a764000060055484600001546104169190610fbc565b6104209190610fd3565b61042a9190610ff5565b9050801561049c576104666001600160a01b037f0000000000000000000000000000000000000000000000000000000000000000163383610bd8565b60405181815233907f106f923f993c2149d49b4255ff723acafa1f2d94393f561d3eda32ae348f72419060200160405180910390a25b828260000160008282546104b09190610ff5565b90915550506005548254670de0b6b3a7640000916104cd91610fbc565b6104d79190610fd3565b60018301556105106001600160a01b037f0000000000000000000000000000000000000000000000000000000000000000163385610bd8565b60405183815233907f7084f5476618d8e60b11ef0d7d3f06914655adb8793e28ff7f018d4c76d505d59060200160405180910390a250506105516001600255565b50565b60008281526020819052604090206001015461056f81610c37565b6105798383610c41565b50505050565b6001600160a01b03811633146105a85760405163334bd91960e11b815260040160405180910390fd5b6105b28282610cd3565b505050565b6000805160206110358339815191526105cf81610c37565b610551610d3e565b6000805160206110358339815191526105ef81610c37565b610551610d90565b6000918252602082815260408084206001600160a01b0393909316845291905290205460ff1690565b60008051602061103583398151915261063881610c37565b610640610949565b60038290556040518281527f41d466ebd06fb97e7786086ac8b69b7eb7da798592036251291d34e9791cde019060200160405180910390a15050565b610684610dcb565b61068c610bb0565b600081116106ca5760405162461bcd60e51b815260206004820152600b60248201526a416d6f756e74207a65726f60a81b60448201526064016103e3565b6106d2610949565b3360009081526006602052604090208054156107925760008160010154670de0b6b3a7640000600554846000015461070a9190610fbc565b6107149190610fd3565b61071e9190610ff5565b905080156107905761075a6001600160a01b037f0000000000000000000000000000000000000000000000000000000000000000163383610bd8565b60405181815233907f106f923f993c2149d49b4255ff723acafa1f2d94393f561d3eda32ae348f72419060200160405180910390a25b505b6107c76001600160a01b037f000000000000000000000000000000000000000000000000000000000000000016333085610def565b818160000160008282546107db9190611008565b90915550506005548154670de0b6b3a7640000916107f891610fbc565b6108029190610fd3565b600182015560405182815233907f2da466a7b24304f47e87fa2e1e5a81b9831ce54fec19055ce277ca2f39ba42c49060200160405180910390a2506105516001600255565b60008281526020819052604090206001015461086281610c37565b6105798383610cd3565b610874610bb0565b3360009081526006602052604090208054806108c85760405162461bcd60e51b81526020600482015260136024820152724e6f7468696e6720746f20776974686472617760681b60448201526064016103e3565b600080835560018301556109066001600160a01b037f0000000000000000000000000000000000000000000000000000000000000000163383610bd8565b60405181815233907f7084f5476618d8e60b11ef0d7d3f06914655adb8793e28ff7f018d4c76d505d59060200160405180910390a250506109476001600255565b565b600454421161095457565b6040516370a0823160e01b81523060048201526000907f00000000000000000000000000000000000000000000000000000000000000006001600160a01b0316906370a0823190602401602060405180830381865afa1580156109bb573d6000803e3d6000fd5b505050506040513d601f19601f820116820180604052508101906109df919061101b565b9050806000036109f0575042600455565b600060045442610a009190610ff5565b9050600060035482610a129190610fbc565b905082610a27670de0b6b3a764000083610fbc565b610a319190610fd3565b60056000828254610a429190611008565b909155505042600455505050565b6001600160a01b03818116600090815260066020908152604080832081518083018352815481526001909101549281019290925260055490516370a0823160e01b815230600482015292939192909184917f0000000000000000000000000000000000000000000000000000000000000000909116906370a0823190602401602060405180830381865afa158015610aec573d6000803e3d6000fd5b505050506040513d601f19601f82011682018060405250810190610b10919061101b565b905060045442118015610b2257508015155b15610b7757600060045442610b379190610ff5565b9050600060035482610b499190610fbc565b905082610b5e670de0b6b3a764000083610fbc565b610b689190610fd3565b610b729085611008565b935050505b60208301518351670de0b6b3a764000090610b93908590610fbc565b610b9d9190610fd3565b610ba79190610ff5565b95945050505050565b6002805403610bd257604051633ee5aeb560e01b815260040160405180910390fd5b60028055565b6040516001600160a01b038381166024830152604482018390526105b291859182169063a9059cbb906064015b604051602081830303815290604052915060e01b6020820180516001600160e01b038381831617835250505050610e28565b6105518133610e99565b6000610c4d83836105f7565b610ccb576000838152602081815260408083206001600160a01b03861684529091529020805460ff19166001179055610c833390565b6001600160a01b0316826001600160a01b0316847f2f8788117e7eff1d82e926ec794901d17c78024a50270940304540a733656f0d60405160405180910390a450600161037b565b50600061037b565b6000610cdf83836105f7565b15610ccb576000838152602081815260408083206001600160a01b0386168085529252808320805460ff1916905551339286917ff6391f5c32d9c69d2a47ea670b442974b53935d1edc7fd64eb21e047a839171b9190a450600161037b565b610d46610ed6565b6001805460ff191690557f5db9ee0a495bf2e6ff9c91a7834c1ba4fdd244a5e8aa4e537bd38aeae4b073aa335b6040516001600160a01b03909116815260200160405180910390a1565b610d98610dcb565b6001805460ff1916811790557f62e78cea01bee320cd4e420270b5ea74000d11b0c9f74754ebdbfc544b05a25833610d73565b60015460ff16156109475760405163d93c066560e01b815260040160405180910390fd5b6040516001600160a01b0384811660248301528381166044830152606482018390526105799186918216906323b872dd90608401610c05565b600080602060008451602086016000885af180610e4b576040513d6000823e3d81fd5b50506000513d91508115610e63578060011415610e70565b6001600160a01b0384163b155b1561057957604051635274afe760e01b81526001600160a01b03851660048201526024016103e3565b610ea382826105f7565b610ed25760405163e2517d3f60e01b81526001600160a01b0382166004820152602481018390526044016103e3565b5050565b60015460ff1661094757604051638dfc202b60e01b815260040160405180910390fd5b600060208284031215610f0b57600080fd5b81356001600160e01b031981168114610f2357600080fd5b9392505050565b80356001600160a01b0381168114610f4157600080fd5b919050565b600060208284031215610f5857600080fd5b610f2382610f2a565b600060208284031215610f7357600080fd5b5035919050565b60008060408385031215610f8d57600080fd5b82359150610f9d60208401610f2a565b90509250929050565b634e487b7160e01b600052601160045260246000fd5b808202811582820484141761037b5761037b610fa6565b600082610ff057634e487b7160e01b600052601260045260246000fd5b500490565b8181038181111561037b5761037b610fa6565b8082018082111561037b5761037b610fa6565b60006020828403121561102d57600080fd5b505191905056fe241ecf16d79d0f8dbfb92cbc07fe17840425976cf0667f022fe9877caa831b08a264697066735822122023f2e9f88deca5f61c3caa5d336fc4f1502329d464d046418029321d086e213c64736f6c63430008180033",
  "linkReferences": {},
  "deployedLinkReferences": {}
}